{
  "_format": "hh-sol-artifact-1",
  "contractName": "Accountabilities",
  "sourceName": "contracts/Accountabilities.sol",
  "abi": [
    {
      "inputs": [],
      "stateMutability": "nonpayable",
      "type": "constructor"
    },
    {
      "inputs": [
        {
          "internalType": "string",
          "name": "_receiver",
          "type": "string"
        },
        {
          "internalType": "string",
          "name": "_parlamentRequest",
          "type": "string"
        },
        {
          "internalType": "string",
          "name": "_eligibleDocument",
          "type": "string"
        },
        {
          "internalType": "uint256",
          "name": "_value",
          "type": "uint256"
        },
        {
          "internalType": "string",
          "name": "_approvalNftUrl",
          "type": "string"
        }
      ],
      "name": "addAccountability",
      "outputs": [],
      "stateMutability": "nonpayable",
      "type": "function"
    },
    {
      "inputs": [
        {
          "internalType": "uint256",
          "name": "_index",
          "type": "uint256"
        }
      ],
      "name": "readAccountability",
      "outputs": [
        {
          "components": [
            {
              "internalType": "string",
              "name": "receiver",
              "type": "string"
            },
            {
              "internalType": "string",
              "name": "parlamentRequest",
              "type": "string"
            },
            {
              "internalType": "string",
              "name": "eligibleDocument",
              "type": "string"
            },
            {
              "internalType": "uint256",
              "name": "value",
              "type": "uint256"
            },
            {
              "internalType": "string",
              "name": "effectedTransaction",
              "type": "string"
            },
            {
              "internalType": "string",
              "name": "approvalNftUrl",
              "type": "string"
            }
          ],
          "internalType": "struct Accountabilities.Accountability",
          "name": "",
          "type": "tuple"
        }
      ],
      "stateMutability": "view",
      "type": "function"
    },
    {
      "inputs": [],
      "name": "readAllAccountabilities",
      "outputs": [
        {
          "components": [
            {
              "internalType": "string",
              "name": "receiver",
              "type": "string"
            },
            {
              "internalType": "string",
              "name": "parlamentRequest",
              "type": "string"
            },
            {
              "internalType": "string",
              "name": "eligibleDocument",
              "type": "string"
            },
            {
              "internalType": "uint256",
              "name": "value",
              "type": "uint256"
            },
            {
              "internalType": "string",
              "name": "effectedTransaction",
              "type": "string"
            },
            {
              "internalType": "string",
              "name": "approvalNftUrl",
              "type": "string"
            }
          ],
          "internalType": "struct Accountabilities.Accountability[]",
          "name": "",
          "type": "tuple[]"
        }
      ],
      "stateMutability": "view",
      "type": "function"
    }
  ],
  "bytecode": "0x608060405234801561001057600080fd5b50611120806100206000396000f3fe608060405234801561001057600080fd5b50600436106100415760003560e01c806318a9af8b146100465780631bfe0e7014610062578063ad6e068814610080575b600080fd5b610060600480360381019061005b91906109e7565b6100b0565b005b61006a6101be565b6040516100779190610cc7565b60405180910390f35b61009a60048036038101906100959190610ce9565b610501565b6040516100a79190610dbb565b60405180910390f35b60006040518060c001604052808781526020018681526020018581526020018481526020016040518060400160405280600b81526020017f494e2050524f4752455353000000000000000000000000000000000000000000815250815260200183815250908060018154018082558091505060019003906000526020600020906006020160009091909190915060008201518160000190816101529190610fe9565b5060208201518160010190816101689190610fe9565b50604082015181600201908161017e9190610fe9565b5060608201518160030155608082015181600401908161019e9190610fe9565b5060a08201518160050190816101b49190610fe9565b5050505050505050565b60606000805480602002602001604051908101604052809291908181526020016000905b828210156104f857838290600052602060002090600602016040518060c001604052908160008201805461021590610e0c565b80601f016020809104026020016040519081016040528092919081815260200182805461024190610e0c565b801561028e5780601f106102635761010080835404028352916020019161028e565b820191906000526020600020905b81548152906001019060200180831161027157829003601f168201915b505050505081526020016001820180546102a790610e0c565b80601f01602080910402602001604051908101604052809291908181526020018280546102d390610e0c565b80156103205780601f106102f557610100808354040283529160200191610320565b820191906000526020600020905b81548152906001019060200180831161030357829003601f168201915b5050505050815260200160028201805461033990610e0c565b80601f016020809104026020016040519081016040528092919081815260200182805461036590610e0c565b80156103b25780601f10610387576101008083540402835291602001916103b2565b820191906000526020600020905b81548152906001019060200180831161039557829003601f168201915b50505050508152602001600382015481526020016004820180546103d590610e0c565b80601f016020809104026020016040519081016040528092919081815260200182805461040190610e0c565b801561044e5780601f106104235761010080835404028352916020019161044e565b820191906000526020600020905b81548152906001019060200180831161043157829003601f168201915b5050505050815260200160058201805461046790610e0c565b80601f016020809104026020016040519081016040528092919081815260200182805461049390610e0c565b80156104e05780601f106104b5576101008083540402835291602001916104e0565b820191906000526020600020905b8154815290600101906020018083116104c357829003601f168201915b505050505081525050815260200190600101906101e2565b50505050905090565b610509610821565b6000828154811061051d5761051c6110bb565b5b90600052602060002090600602016040518060c001604052908160008201805461054690610e0c565b80601f016020809104026020016040519081016040528092919081815260200182805461057290610e0c565b80156105bf5780601f10610594576101008083540402835291602001916105bf565b820191906000526020600020905b8154815290600101906020018083116105a257829003601f168201915b505050505081526020016001820180546105d890610e0c565b80601f016020809104026020016040519081016040528092919081815260200182805461060490610e0c565b80156106515780601f1061062657610100808354040283529160200191610651565b820191906000526020600020905b81548152906001019060200180831161063457829003601f168201915b5050505050815260200160028201805461066a90610e0c565b80601f016020809104026020016040519081016040528092919081815260200182805461069690610e0c565b80156106e35780601f106106b8576101008083540402835291602001916106e3565b820191906000526020600020905b8154815290600101906020018083116106c657829003601f168201915b505050505081526020016003820154815260200160048201805461070690610e0c565b80601f016020809104026020016040519081016040528092919081815260200182805461073290610e0c565b801561077f5780601f106107545761010080835404028352916020019161077f565b820191906000526020600020905b81548152906001019060200180831161076257829003601f168201915b5050505050815260200160058201805461079890610e0c565b80601f01602080910402602001604051908101604052809291908181526020018280546107c490610e0c565b80156108115780601f106107e657610100808354040283529160200191610811565b820191906000526020600020905b8154815290600101906020018083116107f457829003601f168201915b5050505050815250509050919050565b6040518060c001604052806060815260200160608152602001606081526020016000815260200160608152602001606081525090565b6000604051905090565b600080fd5b600080fd5b600080fd5b600080fd5b6000601f19601f8301169050919050565b7f4e487b7100000000000000000000000000000000000000000000000000000000600052604160045260246000fd5b6108be82610875565b810181811067ffffffffffffffff821117156108dd576108dc610886565b5b80604052505050565b60006108f0610857565b90506108fc82826108b5565b919050565b600067ffffffffffffffff82111561091c5761091b610886565b5b61092582610875565b9050602081019050919050565b82818337600083830152505050565b600061095461094f84610901565b6108e6565b9050828152602081018484840111156109705761096f610870565b5b61097b848285610932565b509392505050565b600082601f8301126109985761099761086b565b5b81356109a8848260208601610941565b91505092915050565b6000819050919050565b6109c4816109b1565b81146109cf57600080fd5b50565b6000813590506109e1816109bb565b92915050565b600080600080600060a08688031215610a0357610a02610861565b5b600086013567ffffffffffffffff811115610a2157610a20610866565b5b610a2d88828901610983565b955050602086013567ffffffffffffffff811115610a4e57610a4d610866565b5b610a5a88828901610983565b945050604086013567ffffffffffffffff811115610a7b57610a7a610866565b5b610a8788828901610983565b9350506060610a98888289016109d2565b925050608086013567ffffffffffffffff811115610ab957610ab8610866565b5b610ac588828901610983565b9150509295509295909350565b600081519050919050565b600082825260208201905092915050565b6000819050602082019050919050565b600081519050919050565b600082825260208201905092915050565b60005b83811015610b38578082015181840152602081019050610b1d565b60008484015250505050565b6000610b4f82610afe565b610b598185610b09565b9350610b69818560208601610b1a565b610b7281610875565b840191505092915050565b610b86816109b1565b82525050565b600060c0830160008301518482036000860152610ba98282610b44565b91505060208301518482036020860152610bc38282610b44565b91505060408301518482036040860152610bdd8282610b44565b9150506060830151610bf26060860182610b7d565b5060808301518482036080860152610c0a8282610b44565b91505060a083015184820360a0860152610c248282610b44565b9150508091505092915050565b6000610c3d8383610b8c565b905092915050565b6000602082019050919050565b6000610c5d82610ad2565b610c678185610add565b935083602082028501610c7985610aee565b8060005b85811015610cb55784840389528151610c968582610c31565b9450610ca183610c45565b925060208a01995050600181019050610c7d565b50829750879550505050505092915050565b60006020820190508181036000830152610ce18184610c52565b905092915050565b600060208284031215610cff57610cfe610861565b5b6000610d0d848285016109d2565b91505092915050565b600060c0830160008301518482036000860152610d338282610b44565b91505060208301518482036020860152610d4d8282610b44565b91505060408301518482036040860152610d678282610b44565b9150506060830151610d7c6060860182610b7d565b5060808301518482036080860152610d948282610b44565b91505060a083015184820360a0860152610dae8282610b44565b9150508091505092915050565b60006020820190508181036000830152610dd58184610d16565b905092915050565b7f4e487b7100000000000000000000000000000000000000000000000000000000600052602260045260246000fd5b60006002820490506001821680610e2457607f821691505b602082108103610e3757610e36610ddd565b5b50919050565b60008190508160005260206000209050919050565b60006020601f8301049050919050565b600082821b905092915050565b600060088302610e9f7fffffffffffffffffffffffffffffffffffffffffffffffffffffffffffffffff82610e62565b610ea98683610e62565b95508019841693508086168417925050509392505050565b6000819050919050565b6000610ee6610ee1610edc846109b1565b610ec1565b6109b1565b9050919050565b6000819050919050565b610f0083610ecb565b610f14610f0c82610eed565b848454610e6f565b825550505050565b600090565b610f29610f1c565b610f34818484610ef7565b505050565b5b81811015610f5857610f4d600082610f21565b600181019050610f3a565b5050565b601f821115610f9d57610f6e81610e3d565b610f7784610e52565b81016020851015610f86578190505b610f9a610f9285610e52565b830182610f39565b50505b505050565b600082821c905092915050565b6000610fc060001984600802610fa2565b1980831691505092915050565b6000610fd98383610faf565b9150826002028217905092915050565b610ff282610afe565b67ffffffffffffffff81111561100b5761100a610886565b5b6110158254610e0c565b611020828285610f5c565b600060209050601f8311600181146110535760008415611041578287015190505b61104b8582610fcd565b8655506110b3565b601f19841661106186610e3d565b60005b8281101561108957848901518255600182019150602085019450602081019050611064565b868310156110a657848901516110a2601f891682610faf565b8355505b6001600288020188555050505b505050505050565b7f4e487b7100000000000000000000000000000000000000000000000000000000600052603260045260246000fdfea2646970667358221220d794eb78db778369ec9f3c2b2dc0dc7c8d3d4fd9f85964095913d4e40263b72a64736f6c63430008140033",
  "linkReferences": {},
  "deployedLinkReferences": {}
}