{
  "_format": "hh-sol-artifact-1",
  "contractName": "TransferOrder",
  "sourceName": "contracts/TransferOrder.sol",
  "abi": [
    {
      "inputs": [
        {
          "internalType": "uint256",
          "name": "_balance",
          "type": "uint256"
        },
        {
          "internalType": "address",
          "name": "_token",
          "type": "address"
        },
        {
          "internalType": "address",
          "name": "_treasuryPublicKey",
          "type": "address"
        }
      ],
      "stateMutability": "nonpayable",
      "type": "constructor"
    },
    {
      "inputs": [
        {
          "internalType": "string",
          "name": "_receiver",
          "type": "string"
        },
        {
          "internalType": "string",
          "name": "_parlamentRequest",
          "type": "string"
        },
        {
          "internalType": "string",
          "name": "_eligibleDocument",
          "type": "string"
        },
        {
          "internalType": "uint256",
          "name": "_value",
          "type": "uint256"
        },
        {
          "internalType": "uint256",
          "name": "_priority",
          "type": "uint256"
        },
        {
          "internalType": "address",
          "name": "_receiverAddress",
          "type": "address"
        }
      ],
      "name": "addSpecialTransferRequest",
      "outputs": [],
      "stateMutability": "nonpayable",
      "type": "function"
    },
    {
      "inputs": [],
      "name": "getBalance",
      "outputs": [
        {
          "internalType": "uint256",
          "name": "",
          "type": "uint256"
        }
      ],
      "stateMutability": "view",
      "type": "function"
    },
    {
      "inputs": [],
      "name": "getTreasuryPublicKey",
      "outputs": [
        {
          "internalType": "address",
          "name": "",
          "type": "address"
        }
      ],
      "stateMutability": "view",
      "type": "function"
    },
    {
      "inputs": [],
      "name": "readAllRequests",
      "outputs": [
        {
          "components": [
            {
              "internalType": "string",
              "name": "receiver",
              "type": "string"
            },
            {
              "internalType": "address",
              "name": "receiverAddress",
              "type": "address"
            },
            {
              "internalType": "string",
              "name": "parlamentRequest",
              "type": "string"
            },
            {
              "internalType": "string",
              "name": "eligibleDocument",
              "type": "string"
            },
            {
              "internalType": "uint256",
              "name": "priority",
              "type": "uint256"
            },
            {
              "internalType": "uint256",
              "name": "value",
              "type": "uint256"
            },
            {
              "internalType": "string",
              "name": "effectedTransaction",
              "type": "string"
            }
          ],
          "internalType": "struct TransferOrder.SpecialTransferRequest[]",
          "name": "",
          "type": "tuple[]"
        }
      ],
      "stateMutability": "view",
      "type": "function"
    },
    {
      "inputs": [
        {
          "internalType": "uint256",
          "name": "_index",
          "type": "uint256"
        }
      ],
      "name": "readRequest",
      "outputs": [
        {
          "components": [
            {
              "internalType": "string",
              "name": "receiver",
              "type": "string"
            },
            {
              "internalType": "address",
              "name": "receiverAddress",
              "type": "address"
            },
            {
              "internalType": "string",
              "name": "parlamentRequest",
              "type": "string"
            },
            {
              "internalType": "string",
              "name": "eligibleDocument",
              "type": "string"
            },
            {
              "internalType": "uint256",
              "name": "priority",
              "type": "uint256"
            },
            {
              "internalType": "uint256",
              "name": "value",
              "type": "uint256"
            },
            {
              "internalType": "string",
              "name": "effectedTransaction",
              "type": "string"
            }
          ],
          "internalType": "struct TransferOrder.SpecialTransferRequest",
          "name": "",
          "type": "tuple"
        }
      ],
      "stateMutability": "view",
      "type": "function"
    },
    {
      "inputs": [
        {
          "internalType": "uint256",
          "name": "_balance",
          "type": "uint256"
        }
      ],
      "name": "setBalance",
      "outputs": [],
      "stateMutability": "nonpayable",
      "type": "function"
    },
    {
      "inputs": [
        {
          "internalType": "uint256",
          "name": "_requestIndex",
          "type": "uint256"
        }
      ],
      "name": "specialTransfer",
      "outputs": [],
      "stateMutability": "nonpayable",
      "type": "function"
    },
    {
      "inputs": [
        {
          "internalType": "uint256",
          "name": "_index",
          "type": "uint256"
        },
        {
          "internalType": "string",
          "name": "_effectedTransaction",
          "type": "string"
        }
      ],
      "name": "updateEffectedTransaction",
      "outputs": [],
      "stateMutability": "nonpayable",
      "type": "function"
    }
  ],
  "bytecode": "0x60806040523480156200001157600080fd5b5060405162001ebb38038062001ebb83398181016040528101906200003791906200016d565b82600181905550816000806101000a81548173ffffffffffffffffffffffffffffffffffffffff021916908373ffffffffffffffffffffffffffffffffffffffff16021790555080600260006101000a81548173ffffffffffffffffffffffffffffffffffffffff021916908373ffffffffffffffffffffffffffffffffffffffff160217905550505050620001c9565b600080fd5b6000819050919050565b620000e281620000cd565b8114620000ee57600080fd5b50565b6000815190506200010281620000d7565b92915050565b600073ffffffffffffffffffffffffffffffffffffffff82169050919050565b6000620001358262000108565b9050919050565b620001478162000128565b81146200015357600080fd5b50565b60008151905062000167816200013c565b92915050565b600080600060608486031215620001895762000188620000c8565b5b60006200019986828701620000f1565b9350506020620001ac8682870162000156565b9250506040620001bf8682870162000156565b9150509250925092565b611ce280620001d96000396000f3fe608060405234801561001057600080fd5b50600436106100885760003560e01c8063b71e042b1161005b578063b71e042b14610115578063d8dbb39014610133578063f0bea4a01461014f578063fb1669ca1461016b57610088565b8063078f0cbc1461008d57806312065fe0146100a95780631245bffe146100c757806399f65804146100e5575b600080fd5b6100a760048036038101906100a29190610eb8565b610187565b005b6100b1610533565b6040516100be9190610ef4565b60405180910390f35b6100cf610597565b6040516100dc9190610f50565b60405180910390f35b6100ff60048036038101906100fa9190610eb8565b61061b565b60405161010c91906110ca565b60405180910390f35b61011d610909565b60405161012a919061125f565b60405180910390f35b61014d600480360381019061014891906113e2565b610c1a565b005b610169600480360381019061016491906114c3565b610d80565b005b61018560048036038101906101809190610eb8565b610db7565b005b600260009054906101000a900473ffffffffffffffffffffffffffffffffffffffff1673ffffffffffffffffffffffffffffffffffffffff163373ffffffffffffffffffffffffffffffffffffffff16146101e157600080fd5b6000600382815481106101f7576101f661151f565b5b9060005260206000209060070201600501549050600154811115610250576040517f08c379a0000000000000000000000000000000000000000000000000000000008152600401610247906115d1565b60405180910390fd5b6001600383815481106102665761026561151f565b5b906000526020600020906007020160040154146102b8576040517f08c379a00000000000000000000000000000000000000000000000000000000081526004016102af90611663565b60405180910390fd5b6040516020016102c7906116da565b60405160208183030381529060405280519060200120600383815481106102f1576102f061151f565b5b906000526020600020906007020160060160405160200161031291906117e7565b6040516020818303038152906040528051906020012014610368576040517f08c379a000000000000000000000000000000000000000000000000000000000815260040161035f90611870565b60405180910390fd5b60008060009054906101000a900473ffffffffffffffffffffffffffffffffffffffff1673ffffffffffffffffffffffffffffffffffffffff166323b872dd600260009054906101000a900473ffffffffffffffffffffffffffffffffffffffff16600386815481106103de576103dd61151f565b5b906000526020600020906007020160010160009054906101000a900473ffffffffffffffffffffffffffffffffffffffff16856040518463ffffffff1660e01b815260040161042f93929190611890565b6020604051808303816000875af115801561044e573d6000803e3d6000fd5b505050506040513d601f19601f8201168201806040525081019061047291906118ff565b9050806104b4576040517f08c379a00000000000000000000000000000000000000000000000000000000081526004016104ab90611978565b60405180910390fd5b81600160008282546104c691906119c7565b9250508190555060005b60038054905081101561052d576001600382815481106104f3576104f261151f565b5b9060005260206000209060070201600401600082825461051391906119c7565b925050819055508080610525906119fb565b9150506104d0565b50505050565b6000600260009054906101000a900473ffffffffffffffffffffffffffffffffffffffff1673ffffffffffffffffffffffffffffffffffffffff163373ffffffffffffffffffffffffffffffffffffffff161461058f57600080fd5b600154905090565b6000600260009054906101000a900473ffffffffffffffffffffffffffffffffffffffff1673ffffffffffffffffffffffffffffffffffffffff163373ffffffffffffffffffffffffffffffffffffffff16146105f357600080fd5b600260009054906101000a900473ffffffffffffffffffffffffffffffffffffffff16905090565b610623610e1b565b600382815481106106375761063661151f565b5b90600052602060002090600702016040518060e00160405290816000820180546106609061171e565b80601f016020809104026020016040519081016040528092919081815260200182805461068c9061171e565b80156106d95780601f106106ae576101008083540402835291602001916106d9565b820191906000526020600020905b8154815290600101906020018083116106bc57829003601f168201915b505050505081526020016001820160009054906101000a900473ffffffffffffffffffffffffffffffffffffffff1673ffffffffffffffffffffffffffffffffffffffff1673ffffffffffffffffffffffffffffffffffffffff1681526020016002820180546107489061171e565b80601f01602080910402602001604051908101604052809291908181526020018280546107749061171e565b80156107c15780601f10610796576101008083540402835291602001916107c1565b820191906000526020600020905b8154815290600101906020018083116107a457829003601f168201915b505050505081526020016003820180546107da9061171e565b80601f01602080910402602001604051908101604052809291908181526020018280546108069061171e565b80156108535780601f1061082857610100808354040283529160200191610853565b820191906000526020600020905b81548152906001019060200180831161083657829003601f168201915b5050505050815260200160048201548152602001600582015481526020016006820180546108809061171e565b80601f01602080910402602001604051908101604052809291908181526020018280546108ac9061171e565b80156108f95780601f106108ce576101008083540402835291602001916108f9565b820191906000526020600020905b8154815290600101906020018083116108dc57829003601f168201915b5050505050815250509050919050565b60606003805480602002602001604051908101604052809291908181526020016000905b82821015610c1157838290600052602060002090600702016040518060e00160405290816000820180546109609061171e565b80601f016020809104026020016040519081016040528092919081815260200182805461098c9061171e565b80156109d95780601f106109ae576101008083540402835291602001916109d9565b820191906000526020600020905b8154815290600101906020018083116109bc57829003601f168201915b505050505081526020016001820160009054906101000a900473ffffffffffffffffffffffffffffffffffffffff1673ffffffffffffffffffffffffffffffffffffffff1673ffffffffffffffffffffffffffffffffffffffff168152602001600282018054610a489061171e565b80601f0160208091040260200160405190810160405280929190818152602001828054610a749061171e565b8015610ac15780601f10610a9657610100808354040283529160200191610ac1565b820191906000526020600020905b815481529060010190602001808311610aa457829003601f168201915b50505050508152602001600382018054610ada9061171e565b80601f0160208091040260200160405190810160405280929190818152602001828054610b069061171e565b8015610b535780601f10610b2857610100808354040283529160200191610b53565b820191906000526020600020905b815481529060010190602001808311610b3657829003601f168201915b505050505081526020016004820154815260200160058201548152602001600682018054610b809061171e565b80601f0160208091040260200160405190810160405280929190818152602001828054610bac9061171e565b8015610bf95780601f10610bce57610100808354040283529160200191610bf9565b820191906000526020600020905b815481529060010190602001808311610bdc57829003601f168201915b5050505050815250508152602001906001019061092d565b50505050905090565b60036040518060e001604052808881526020018373ffffffffffffffffffffffffffffffffffffffff1681526020018781526020018681526020018481526020018581526020016040518060400160405280600781526020017f50454e44494e470000000000000000000000000000000000000000000000000081525081525090806001815401808255809150506001900390600052602060002090600702016000909190919091506000820151816000019081610cd89190611bda565b5060208201518160010160006101000a81548173ffffffffffffffffffffffffffffffffffffffff021916908373ffffffffffffffffffffffffffffffffffffffff1602179055506040820151816002019081610d359190611bda565b506060820151816003019081610d4b9190611bda565b506080820151816004015560a0820151816005015560c0820151816006019081610d759190611bda565b505050505050505050565b8060038381548110610d9557610d9461151f565b5b90600052602060002090600702016006019081610db29190611bda565b505050565b600260009054906101000a900473ffffffffffffffffffffffffffffffffffffffff1673ffffffffffffffffffffffffffffffffffffffff163373ffffffffffffffffffffffffffffffffffffffff1614610e1157600080fd5b8060018190555050565b6040518060e0016040528060608152602001600073ffffffffffffffffffffffffffffffffffffffff16815260200160608152602001606081526020016000815260200160008152602001606081525090565b6000604051905090565b600080fd5b600080fd5b6000819050919050565b610e9581610e82565b8114610ea057600080fd5b50565b600081359050610eb281610e8c565b92915050565b600060208284031215610ece57610ecd610e78565b5b6000610edc84828501610ea3565b91505092915050565b610eee81610e82565b82525050565b6000602082019050610f096000830184610ee5565b92915050565b600073ffffffffffffffffffffffffffffffffffffffff82169050919050565b6000610f3a82610f0f565b9050919050565b610f4a81610f2f565b82525050565b6000602082019050610f656000830184610f41565b92915050565b600081519050919050565b600082825260208201905092915050565b60005b83811015610fa5578082015181840152602081019050610f8a565b60008484015250505050565b6000601f19601f8301169050919050565b6000610fcd82610f6b565b610fd78185610f76565b9350610fe7818560208601610f87565b610ff081610fb1565b840191505092915050565b61100481610f2f565b82525050565b61101381610e82565b82525050565b600060e08301600083015184820360008601526110368282610fc2565b915050602083015161104b6020860182610ffb565b50604083015184820360408601526110638282610fc2565b9150506060830151848203606086015261107d8282610fc2565b9150506080830151611092608086018261100a565b5060a08301516110a560a086018261100a565b5060c083015184820360c08601526110bd8282610fc2565b9150508091505092915050565b600060208201905081810360008301526110e48184611019565b905092915050565b600081519050919050565b600082825260208201905092915050565b6000819050602082019050919050565b600060e08301600083015184820360008601526111358282610fc2565b915050602083015161114a6020860182610ffb565b50604083015184820360408601526111628282610fc2565b9150506060830151848203606086015261117c8282610fc2565b9150506080830151611191608086018261100a565b5060a08301516111a460a086018261100a565b5060c083015184820360c08601526111bc8282610fc2565b9150508091505092915050565b60006111d58383611118565b905092915050565b6000602082019050919050565b60006111f5826110ec565b6111ff81856110f7565b93508360208202850161121185611108565b8060005b8581101561124d578484038952815161122e85826111c9565b9450611239836111dd565b925060208a01995050600181019050611215565b50829750879550505050505092915050565b6000602082019050818103600083015261127981846111ea565b905092915050565b600080fd5b600080fd5b7f4e487b7100000000000000000000000000000000000000000000000000000000600052604160045260246000fd5b6112c382610fb1565b810181811067ffffffffffffffff821117156112e2576112e161128b565b5b80604052505050565b60006112f5610e6e565b905061130182826112ba565b919050565b600067ffffffffffffffff8211156113215761132061128b565b5b61132a82610fb1565b9050602081019050919050565b82818337600083830152505050565b600061135961135484611306565b6112eb565b90508281526020810184848401111561137557611374611286565b5b611380848285611337565b509392505050565b600082601f83011261139d5761139c611281565b5b81356113ad848260208601611346565b91505092915050565b6113bf81610f2f565b81146113ca57600080fd5b50565b6000813590506113dc816113b6565b92915050565b60008060008060008060c087890312156113ff576113fe610e78565b5b600087013567ffffffffffffffff81111561141d5761141c610e7d565b5b61142989828a01611388565b965050602087013567ffffffffffffffff81111561144a57611449610e7d565b5b61145689828a01611388565b955050604087013567ffffffffffffffff81111561147757611476610e7d565b5b61148389828a01611388565b945050606061149489828a01610ea3565b93505060806114a589828a01610ea3565b92505060a06114b689828a016113cd565b9150509295509295509295565b600080604083850312156114da576114d9610e78565b5b60006114e885828601610ea3565b925050602083013567ffffffffffffffff81111561150957611508610e7d565b5b61151585828601611388565b9150509250929050565b7f4e487b7100000000000000000000000000000000000000000000000000000000600052603260045260246000fd5b600082825260208201905092915050565b7f4572726f723a20747265617375727920646f6573206e6f74206861766520656e60008201527f6f7567682066756e64732e000000000000000000000000000000000000000000602082015250565b60006115bb602b8361154e565b91506115c68261155f565b604082019050919050565b600060208201905081810360008301526115ea816115ae565b9050919050565b7f4572726f723a207472616e7366657220686173206e6f7420686967686573742060008201527f7072696f726974792e0000000000000000000000000000000000000000000000602082015250565b600061164d60298361154e565b9150611658826115f1565b604082019050919050565b6000602082019050818103600083015261167c81611640565b9050919050565b600081905092915050565b7f50454e44494e4700000000000000000000000000000000000000000000000000600082015250565b60006116c4600783611683565b91506116cf8261168e565b600782019050919050565b60006116e5826116b7565b9150819050919050565b7f4e487b7100000000000000000000000000000000000000000000000000000000600052602260045260246000fd5b6000600282049050600182168061173657607f821691505b602082108103611749576117486116ef565b5b50919050565b60008190508160005260206000209050919050565b600081546117718161171e565b61177b8186611683565b9450600182166000811461179657600181146117ab576117de565b60ff19831686528115158202860193506117de565b6117b48561174f565b60005b838110156117d6578154818901526001820191506020810190506117b7565b838801955050505b50505092915050565b60006117f38284611764565b915081905092915050565b7f4572726f723a207472616e7366657220697320616c726561647920696e20707260008201527f6f63657373000000000000000000000000000000000000000000000000000000602082015250565b600061185a60258361154e565b9150611865826117fe565b604082019050919050565b600060208201905081810360008301526118898161184d565b9050919050565b60006060820190506118a56000830186610f41565b6118b26020830185610f41565b6118bf6040830184610ee5565b949350505050565b60008115159050919050565b6118dc816118c7565b81146118e757600080fd5b50565b6000815190506118f9816118d3565b92915050565b60006020828403121561191557611914610e78565b5b6000611923848285016118ea565b91505092915050565b7f7472616e73666572206661696c65640000000000000000000000000000000000600082015250565b6000611962600f8361154e565b915061196d8261192c565b602082019050919050565b6000602082019050818103600083015261199181611955565b9050919050565b7f4e487b7100000000000000000000000000000000000000000000000000000000600052601160045260246000fd5b60006119d282610e82565b91506119dd83610e82565b92508282039050818111156119f5576119f4611998565b5b92915050565b6000611a0682610e82565b91507fffffffffffffffffffffffffffffffffffffffffffffffffffffffffffffffff8203611a3857611a37611998565b5b600182019050919050565b60006020601f8301049050919050565b600082821b905092915050565b600060088302611a907fffffffffffffffffffffffffffffffffffffffffffffffffffffffffffffffff82611a53565b611a9a8683611a53565b95508019841693508086168417925050509392505050565b6000819050919050565b6000611ad7611ad2611acd84610e82565b611ab2565b610e82565b9050919050565b6000819050919050565b611af183611abc565b611b05611afd82611ade565b848454611a60565b825550505050565b600090565b611b1a611b0d565b611b25818484611ae8565b505050565b5b81811015611b4957611b3e600082611b12565b600181019050611b2b565b5050565b601f821115611b8e57611b5f8161174f565b611b6884611a43565b81016020851015611b77578190505b611b8b611b8385611a43565b830182611b2a565b50505b505050565b600082821c905092915050565b6000611bb160001984600802611b93565b1980831691505092915050565b6000611bca8383611ba0565b9150826002028217905092915050565b611be382610f6b565b67ffffffffffffffff811115611bfc57611bfb61128b565b5b611c06825461171e565b611c11828285611b4d565b600060209050601f831160018114611c445760008415611c32578287015190505b611c3c8582611bbe565b865550611ca4565b601f198416611c528661174f565b60005b82811015611c7a57848901518255600182019150602085019450602081019050611c55565b86831015611c975784890151611c93601f891682611ba0565b8355505b6001600288020188555050505b50505050505056fea2646970667358221220e69de46c93d3ecd6dfdb536d04ddf005009e19d73147e65e62f0c365953d679b64736f6c63430008140033",
  "linkReferences": {},
  "deployedLinkReferences": {}
}