{
  "_format": "hh-sol-artifact-1",
  "contractName": "VerificationSeal",
  "sourceName": "contracts/VerificationSeal.sol",
  "abi": [
    {
      "inputs": [
        {
          "internalType": "address",
          "name": "_initialOwner",
          "type": "address"
        }
      ],
      "stateMutability": "nonpayable",
      "type": "constructor"
    },
    {
      "inputs": [
        {
          "internalType": "address",
          "name": "sender",
          "type": "address"
        },
        {
          "internalType": "uint256",
          "name": "tokenId",
          "type": "uint256"
        },
        {
          "internalType": "address",
          "name": "owner",
          "type": "address"
        }
      ],
      "name": "ERC721IncorrectOwner",
      "type": "error"
    },
    {
      "inputs": [
        {
          "internalType": "address",
          "name": "operator",
          "type": "address"
        },
        {
          "internalType": "uint256",
          "name": "tokenId",
          "type": "uint256"
        }
      ],
      "name": "ERC721InsufficientApproval",
      "type": "error"
    },
    {
      "inputs": [
        {
          "internalType": "address",
          "name": "approver",
          "type": "address"
        }
      ],
      "name": "ERC721InvalidApprover",
      "type": "error"
    },
    {
      "inputs": [
        {
          "internalType": "address",
          "name": "operator",
          "type": "address"
        }
      ],
      "name": "ERC721InvalidOperator",
      "type": "error"
    },
    {
      "inputs": [
        {
          "internalType": "address",
          "name": "owner",
          "type": "address"
        }
      ],
      "name": "ERC721InvalidOwner",
      "type": "error"
    },
    {
      "inputs": [
        {
          "internalType": "address",
          "name": "receiver",
          "type": "address"
        }
      ],
      "name": "ERC721InvalidReceiver",
      "type": "error"
    },
    {
      "inputs": [
        {
          "internalType": "address",
          "name": "sender",
          "type": "address"
        }
      ],
      "name": "ERC721InvalidSender",
      "type": "error"
    },
    {
      "inputs": [
        {
          "internalType": "uint256",
          "name": "tokenId",
          "type": "uint256"
        }
      ],
      "name": "ERC721NonexistentToken",
      "type": "error"
    },
    {
      "inputs": [
        {
          "internalType": "address",
          "name": "owner",
          "type": "address"
        }
      ],
      "name": "OwnableInvalidOwner",
      "type": "error"
    },
    {
      "inputs": [
        {
          "internalType": "address",
          "name": "account",
          "type": "address"
        }
      ],
      "name": "OwnableUnauthorizedAccount",
      "type": "error"
    },
    {
      "anonymous": false,
      "inputs": [
        {
          "indexed": true,
          "internalType": "address",
          "name": "owner",
          "type": "address"
        },
        {
          "indexed": true,
          "internalType": "address",
          "name": "approved",
          "type": "address"
        },
        {
          "indexed": true,
          "internalType": "uint256",
          "name": "tokenId",
          "type": "uint256"
        }
      ],
      "name": "Approval",
      "type": "event"
    },
    {
      "anonymous": false,
      "inputs": [
        {
          "indexed": true,
          "internalType": "address",
          "name": "owner",
          "type": "address"
        },
        {
          "indexed": true,
          "internalType": "address",
          "name": "operator",
          "type": "address"
        },
        {
          "indexed": false,
          "internalType": "bool",
          "name": "approved",
          "type": "bool"
        }
      ],
      "name": "ApprovalForAll",
      "type": "event"
    },
    {
      "anonymous": false,
      "inputs": [
        {
          "indexed": true,
          "internalType": "address",
          "name": "previousOwner",
          "type": "address"
        },
        {
          "indexed": true,
          "internalType": "address",
          "name": "newOwner",
          "type": "address"
        }
      ],
      "name": "OwnershipTransferred",
      "type": "event"
    },
    {
      "anonymous": false,
      "inputs": [
        {
          "indexed": true,
          "internalType": "address",
          "name": "from",
          "type": "address"
        },
        {
          "indexed": true,
          "internalType": "address",
          "name": "to",
          "type": "address"
        },
        {
          "indexed": true,
          "internalType": "uint256",
          "name": "tokenId",
          "type": "uint256"
        }
      ],
      "name": "Transfer",
      "type": "event"
    },
    {
      "inputs": [
        {
          "internalType": "address",
          "name": "_tcAddress",
          "type": "address"
        }
      ],
      "name": "addTcAllowedAddress",
      "outputs": [],
      "stateMutability": "nonpayable",
      "type": "function"
    },
    {
      "inputs": [
        {
          "internalType": "address",
          "name": "to",
          "type": "address"
        },
        {
          "internalType": "uint256",
          "name": "tokenId",
          "type": "uint256"
        }
      ],
      "name": "approve",
      "outputs": [],
      "stateMutability": "nonpayable",
      "type": "function"
    },
    {
      "inputs": [
        {
          "internalType": "address",
          "name": "owner",
          "type": "address"
        }
      ],
      "name": "balanceOf",
      "outputs": [
        {
          "internalType": "uint256",
          "name": "",
          "type": "uint256"
        }
      ],
      "stateMutability": "view",
      "type": "function"
    },
    {
      "inputs": [
        {
          "internalType": "uint256",
          "name": "tokenId",
          "type": "uint256"
        }
      ],
      "name": "getApproved",
      "outputs": [
        {
          "internalType": "address",
          "name": "",
          "type": "address"
        }
      ],
      "stateMutability": "view",
      "type": "function"
    },
    {
      "inputs": [
        {
          "internalType": "address",
          "name": "owner",
          "type": "address"
        },
        {
          "internalType": "address",
          "name": "operator",
          "type": "address"
        }
      ],
      "name": "isApprovedForAll",
      "outputs": [
        {
          "internalType": "bool",
          "name": "",
          "type": "bool"
        }
      ],
      "stateMutability": "view",
      "type": "function"
    },
    {
      "inputs": [],
      "name": "name",
      "outputs": [
        {
          "internalType": "string",
          "name": "",
          "type": "string"
        }
      ],
      "stateMutability": "view",
      "type": "function"
    },
    {
      "inputs": [],
      "name": "owner",
      "outputs": [
        {
          "internalType": "address",
          "name": "",
          "type": "address"
        }
      ],
      "stateMutability": "view",
      "type": "function"
    },
    {
      "inputs": [
        {
          "internalType": "uint256",
          "name": "tokenId",
          "type": "uint256"
        }
      ],
      "name": "ownerOf",
      "outputs": [
        {
          "internalType": "address",
          "name": "",
          "type": "address"
        }
      ],
      "stateMutability": "view",
      "type": "function"
    },
    {
      "inputs": [],
      "name": "renounceOwnership",
      "outputs": [],
      "stateMutability": "nonpayable",
      "type": "function"
    },
    {
      "inputs": [
        {
          "internalType": "address",
          "name": "to",
          "type": "address"
        }
      ],
      "name": "safeMint",
      "outputs": [],
      "stateMutability": "nonpayable",
      "type": "function"
    },
    {
      "inputs": [
        {
          "internalType": "address",
          "name": "from",
          "type": "address"
        },
        {
          "internalType": "address",
          "name": "to",
          "type": "address"
        },
        {
          "internalType": "uint256",
          "name": "tokenId",
          "type": "uint256"
        }
      ],
      "name": "safeTransferFrom",
      "outputs": [],
      "stateMutability": "nonpayable",
      "type": "function"
    },
    {
      "inputs": [
        {
          "internalType": "address",
          "name": "from",
          "type": "address"
        },
        {
          "internalType": "address",
          "name": "to",
          "type": "address"
        },
        {
          "internalType": "uint256",
          "name": "tokenId",
          "type": "uint256"
        },
        {
          "internalType": "bytes",
          "name": "data",
          "type": "bytes"
        }
      ],
      "name": "safeTransferFrom",
      "outputs": [],
      "stateMutability": "nonpayable",
      "type": "function"
    },
    {
      "inputs": [
        {
          "internalType": "address",
          "name": "operator",
          "type": "address"
        },
        {
          "internalType": "bool",
          "name": "approved",
          "type": "bool"
        }
      ],
      "name": "setApprovalForAll",
      "outputs": [],
      "stateMutability": "nonpayable",
      "type": "function"
    },
    {
      "inputs": [
        {
          "internalType": "bytes4",
          "name": "interfaceId",
          "type": "bytes4"
        }
      ],
      "name": "supportsInterface",
      "outputs": [
        {
          "internalType": "bool",
          "name": "",
          "type": "bool"
        }
      ],
      "stateMutability": "view",
      "type": "function"
    },
    {
      "inputs": [],
      "name": "symbol",
      "outputs": [
        {
          "internalType": "string",
          "name": "",
          "type": "string"
        }
      ],
      "stateMutability": "view",
      "type": "function"
    },
    {
      "inputs": [
        {
          "internalType": "uint256",
          "name": "tokenId",
          "type": "uint256"
        }
      ],
      "name": "tokenURI",
      "outputs": [
        {
          "internalType": "string",
          "name": "",
          "type": "string"
        }
      ],
      "stateMutability": "view",
      "type": "function"
    },
    {
      "inputs": [
        {
          "internalType": "address",
          "name": "from",
          "type": "address"
        },
        {
          "internalType": "address",
          "name": "to",
          "type": "address"
        },
        {
          "internalType": "uint256",
          "name": "tokenId",
          "type": "uint256"
        }
      ],
      "name": "transferFrom",
      "outputs": [],
      "stateMutability": "nonpayable",
      "type": "function"
    },
    {
      "inputs": [
        {
          "internalType": "address",
          "name": "newOwner",
          "type": "address"
        }
      ],
      "name": "transferOwnership",
      "outputs": [],
      "stateMutability": "nonpayable",
      "type": "function"
    }
  ],
  "bytecode": "0x60806040523480156200001157600080fd5b5060405162002894380380620028948339818101604052810190620000379190620002e0565b806040518060400160405280601081526020017f566572696669636174696f6e5365616c000000000000000000000000000000008152506040518060400160405280600381526020017f56525300000000000000000000000000000000000000000000000000000000008152508160009081620000b591906200058c565b508060019081620000c791906200058c565b505050600073ffffffffffffffffffffffffffffffffffffffff168173ffffffffffffffffffffffffffffffffffffffff16036200013f5760006040517f1e4fbdf700000000000000000000000000000000000000000000000000000000815260040162000136919062000684565b60405180910390fd5b6200015081620001b060201b60201c565b506001600760008373ffffffffffffffffffffffffffffffffffffffff1673ffffffffffffffffffffffffffffffffffffffff16815260200190815260200160002060006101000a81548160ff02191690831515021790555050620006a1565b6000600660009054906101000a900473ffffffffffffffffffffffffffffffffffffffff16905081600660006101000a81548173ffffffffffffffffffffffffffffffffffffffff021916908373ffffffffffffffffffffffffffffffffffffffff1602179055508173ffffffffffffffffffffffffffffffffffffffff168173ffffffffffffffffffffffffffffffffffffffff167f8be0079c531659141344cd1fd0a4f28419497f9722a3daafe3b4186f6b6457e060405160405180910390a35050565b600080fd5b600073ffffffffffffffffffffffffffffffffffffffff82169050919050565b6000620002a8826200027b565b9050919050565b620002ba816200029b565b8114620002c657600080fd5b50565b600081519050620002da81620002af565b92915050565b600060208284031215620002f957620002f862000276565b5b60006200030984828501620002c9565b91505092915050565b600081519050919050565b7f4e487b7100000000000000000000000000000000000000000000000000000000600052604160045260246000fd5b7f4e487b7100000000000000000000000000000000000000000000000000000000600052602260045260246000fd5b600060028204905060018216806200039457607f821691505b602082108103620003aa57620003a96200034c565b5b50919050565b60008190508160005260206000209050919050565b60006020601f8301049050919050565b600082821b905092915050565b600060088302620004147fffffffffffffffffffffffffffffffffffffffffffffffffffffffffffffffff82620003d5565b620004208683620003d5565b95508019841693508086168417925050509392505050565b6000819050919050565b6000819050919050565b60006200046d62000467620004618462000438565b62000442565b62000438565b9050919050565b6000819050919050565b62000489836200044c565b620004a1620004988262000474565b848454620003e2565b825550505050565b600090565b620004b8620004a9565b620004c58184846200047e565b505050565b5b81811015620004ed57620004e1600082620004ae565b600181019050620004cb565b5050565b601f8211156200053c576200050681620003b0565b6200051184620003c5565b8101602085101562000521578190505b620005396200053085620003c5565b830182620004ca565b50505b505050565b600082821c905092915050565b6000620005616000198460080262000541565b1980831691505092915050565b60006200057c83836200054e565b9150826002028217905092915050565b620005978262000312565b67ffffffffffffffff811115620005b357620005b26200031d565b5b620005bf82546200037b565b620005cc828285620004f1565b600060209050601f831160018114620006045760008415620005ef578287015190505b620005fb85826200056e565b8655506200066b565b601f1984166200061486620003b0565b60005b828110156200063e5784890151825560018201915060208501945060208101905062000617565b868310156200065e57848901516200065a601f8916826200054e565b8355505b6001600288020188555050505b505050505050565b6200067e816200029b565b82525050565b60006020820190506200069b600083018462000673565b92915050565b6121e380620006b16000396000f3fe608060405234801561001057600080fd5b50600436106101165760003560e01c8063715018a6116100a2578063a751c34411610071578063a751c344146102cb578063b88d4fde146102e7578063c87b56dd14610303578063e985e9c514610333578063f2fde38b1461036357610116565b8063715018a6146102695780638da5cb5b1461027357806395d89b4114610291578063a22cb465146102af57610116565b806323b872dd116100e957806323b872dd146101b557806340d097c3146101d157806342842e0e146101ed5780636352211e1461020957806370a082311461023957610116565b806301ffc9a71461011b57806306fdde031461014b578063081812fc14610169578063095ea7b314610199575b600080fd5b610135600480360381019061013091906119b6565b61037f565b60405161014291906119fe565b60405180910390f35b610153610461565b6040516101609190611aa9565b60405180910390f35b610183600480360381019061017e9190611b01565b6104f3565b6040516101909190611b6f565b60405180910390f35b6101b360048036038101906101ae9190611bb6565b61050f565b005b6101cf60048036038101906101ca9190611bf6565b610525565b005b6101eb60048036038101906101e69190611c49565b610627565b005b61020760048036038101906102029190611bf6565b6106ad565b005b610223600480360381019061021e9190611b01565b6106cd565b6040516102309190611b6f565b60405180910390f35b610253600480360381019061024e9190611c49565b6106df565b6040516102609190611c85565b60405180910390f35b610271610799565b005b61027b6107ad565b6040516102889190611b6f565b60405180910390f35b6102996107d7565b6040516102a69190611aa9565b60405180910390f35b6102c960048036038101906102c49190611ccc565b610869565b005b6102e560048036038101906102e09190611c49565b61087f565b005b61030160048036038101906102fc9190611e41565b6108e2565b005b61031d60048036038101906103189190611b01565b6108ff565b60405161032a9190611aa9565b60405180910390f35b61034d60048036038101906103489190611ec4565b610968565b60405161035a91906119fe565b60405180910390f35b61037d60048036038101906103789190611c49565b6109fc565b005b60007f80ac58cd000000000000000000000000000000000000000000000000000000007bffffffffffffffffffffffffffffffffffffffffffffffffffffffff1916827bffffffffffffffffffffffffffffffffffffffffffffffffffffffff1916148061044a57507f5b5e139f000000000000000000000000000000000000000000000000000000007bffffffffffffffffffffffffffffffffffffffffffffffffffffffff1916827bffffffffffffffffffffffffffffffffffffffffffffffffffffffff1916145b8061045a575061045982610a82565b5b9050919050565b60606000805461047090611f33565b80601f016020809104026020016040519081016040528092919081815260200182805461049c90611f33565b80156104e95780601f106104be576101008083540402835291602001916104e9565b820191906000526020600020905b8154815290600101906020018083116104cc57829003601f168201915b5050505050905090565b60006104fe82610aec565b5061050882610b74565b9050919050565b610521828261051c610bb1565b610bb9565b5050565b600073ffffffffffffffffffffffffffffffffffffffff168273ffffffffffffffffffffffffffffffffffffffff16036105975760006040517f64a0ae9200000000000000000000000000000000000000000000000000000000815260040161058e9190611b6f565b60405180910390fd5b60006105ab83836105a6610bb1565b610bcb565b90508373ffffffffffffffffffffffffffffffffffffffff168173ffffffffffffffffffffffffffffffffffffffff1614610621578382826040517f64283d7b00000000000000000000000000000000000000000000000000000000815260040161061893929190611f64565b60405180910390fd5b50505050565b60011515600760003373ffffffffffffffffffffffffffffffffffffffff1673ffffffffffffffffffffffffffffffffffffffff16815260200190815260200160002060009054906101000a900460ff1615151461068457600080fd5b60006008600081548092919061069990611fca565b9190505590506106a98282610de5565b5050565b6106c8838383604051806020016040528060008152506108e2565b505050565b60006106d882610aec565b9050919050565b60008073ffffffffffffffffffffffffffffffffffffffff168273ffffffffffffffffffffffffffffffffffffffff16036107525760006040517f89c62b640000000000000000000000000000000000000000000000000000000081526004016107499190611b6f565b60405180910390fd5b600360008373ffffffffffffffffffffffffffffffffffffffff1673ffffffffffffffffffffffffffffffffffffffff168152602001908152602001600020549050919050565b6107a1610e03565b6107ab6000610e8a565b565b6000600660009054906101000a900473ffffffffffffffffffffffffffffffffffffffff16905090565b6060600180546107e690611f33565b80601f016020809104026020016040519081016040528092919081815260200182805461081290611f33565b801561085f5780601f106108345761010080835404028352916020019161085f565b820191906000526020600020905b81548152906001019060200180831161084257829003601f168201915b5050505050905090565b61087b610874610bb1565b8383610f50565b5050565b610887610e03565b6001600760008373ffffffffffffffffffffffffffffffffffffffff1673ffffffffffffffffffffffffffffffffffffffff16815260200190815260200160002060006101000a81548160ff02191690831515021790555050565b6108ed848484610525565b6108f9848484846110bf565b50505050565b606061090a82610aec565b506000610915611276565b905060008151116109355760405180602001604052806000815250610960565b8061093f8461128d565b60405160200161095092919061204e565b6040516020818303038152906040525b915050919050565b6000600560008473ffffffffffffffffffffffffffffffffffffffff1673ffffffffffffffffffffffffffffffffffffffff16815260200190815260200160002060008373ffffffffffffffffffffffffffffffffffffffff1673ffffffffffffffffffffffffffffffffffffffff16815260200190815260200160002060009054906101000a900460ff16905092915050565b610a04610e03565b600073ffffffffffffffffffffffffffffffffffffffff168173ffffffffffffffffffffffffffffffffffffffff1603610a765760006040517f1e4fbdf7000000000000000000000000000000000000000000000000000000008152600401610a6d9190611b6f565b60405180910390fd5b610a7f81610e8a565b50565b60007f01ffc9a7000000000000000000000000000000000000000000000000000000007bffffffffffffffffffffffffffffffffffffffffffffffffffffffff1916827bffffffffffffffffffffffffffffffffffffffffffffffffffffffff1916149050919050565b600080610af88361135b565b9050600073ffffffffffffffffffffffffffffffffffffffff168173ffffffffffffffffffffffffffffffffffffffff1603610b6b57826040517f7e273289000000000000000000000000000000000000000000000000000000008152600401610b629190611c85565b60405180910390fd5b80915050919050565b60006004600083815260200190815260200160002060009054906101000a900473ffffffffffffffffffffffffffffffffffffffff169050919050565b600033905090565b610bc68383836001611398565b505050565b600080610bd78461135b565b9050600073ffffffffffffffffffffffffffffffffffffffff168373ffffffffffffffffffffffffffffffffffffffff1614610c1957610c1881848661155d565b5b600073ffffffffffffffffffffffffffffffffffffffff168173ffffffffffffffffffffffffffffffffffffffff1614610caa57610c5b600085600080611398565b6001600360008373ffffffffffffffffffffffffffffffffffffffff1673ffffffffffffffffffffffffffffffffffffffff168152602001908152602001600020600082825403925050819055505b600073ffffffffffffffffffffffffffffffffffffffff168573ffffffffffffffffffffffffffffffffffffffff1614610d2d576001600360008773ffffffffffffffffffffffffffffffffffffffff1673ffffffffffffffffffffffffffffffffffffffff168152602001908152602001600020600082825401925050819055505b846002600086815260200190815260200160002060006101000a81548173ffffffffffffffffffffffffffffffffffffffff021916908373ffffffffffffffffffffffffffffffffffffffff160217905550838573ffffffffffffffffffffffffffffffffffffffff168273ffffffffffffffffffffffffffffffffffffffff167fddf252ad1be2c89b69c2b068fc378daa952ba7f163c4a11628f55a4df523b3ef60405160405180910390a4809150509392505050565b610dff828260405180602001604052806000815250611621565b5050565b610e0b610bb1565b73ffffffffffffffffffffffffffffffffffffffff16610e296107ad565b73ffffffffffffffffffffffffffffffffffffffff1614610e8857610e4c610bb1565b6040517f118cdaa7000000000000000000000000000000000000000000000000000000008152600401610e7f9190611b6f565b60405180910390fd5b565b6000600660009054906101000a900473ffffffffffffffffffffffffffffffffffffffff16905081600660006101000a81548173ffffffffffffffffffffffffffffffffffffffff021916908373ffffffffffffffffffffffffffffffffffffffff1602179055508173ffffffffffffffffffffffffffffffffffffffff168173ffffffffffffffffffffffffffffffffffffffff167f8be0079c531659141344cd1fd0a4f28419497f9722a3daafe3b4186f6b6457e060405160405180910390a35050565b600073ffffffffffffffffffffffffffffffffffffffff168273ffffffffffffffffffffffffffffffffffffffff1603610fc157816040517f5b08ba18000000000000000000000000000000000000000000000000000000008152600401610fb89190611b6f565b60405180910390fd5b80600560008573ffffffffffffffffffffffffffffffffffffffff1673ffffffffffffffffffffffffffffffffffffffff16815260200190815260200160002060008473ffffffffffffffffffffffffffffffffffffffff1673ffffffffffffffffffffffffffffffffffffffff16815260200190815260200160002060006101000a81548160ff0219169083151502179055508173ffffffffffffffffffffffffffffffffffffffff168373ffffffffffffffffffffffffffffffffffffffff167f17307eab39ab6107e8899845ad3d59bd9653f200f220920489ca2b5937696c31836040516110b291906119fe565b60405180910390a3505050565b60008373ffffffffffffffffffffffffffffffffffffffff163b1115611270578273ffffffffffffffffffffffffffffffffffffffff1663150b7a02611103610bb1565b8685856040518563ffffffff1660e01b815260040161112594939291906120c7565b6020604051808303816000875af192505050801561116157506040513d601f19601f8201168201806040525081019061115e9190612128565b60015b6111e5573d8060008114611191576040519150601f19603f3d011682016040523d82523d6000602084013e611196565b606091505b5060008151036111dd57836040517f64a0ae920000000000000000000000000000000000000000000000000000000081526004016111d49190611b6f565b60405180910390fd5b805181602001fd5b63150b7a0260e01b7bffffffffffffffffffffffffffffffffffffffffffffffffffffffff1916817bffffffffffffffffffffffffffffffffffffffffffffffffffffffff19161461126e57836040517f64a0ae920000000000000000000000000000000000000000000000000000000081526004016112659190611b6f565b60405180910390fd5b505b50505050565b606060405180602001604052806000815250905090565b60606000600161129c8461163d565b01905060008167ffffffffffffffff8111156112bb576112ba611d16565b5b6040519080825280601f01601f1916602001820160405280156112ed5781602001600182028036833780820191505090505b509050600082602001820190505b600115611350578080600190039150507f3031323334353637383961626364656600000000000000000000000000000000600a86061a8153600a858161134457611343612155565b5b049450600085036112fb575b819350505050919050565b60006002600083815260200190815260200160002060009054906101000a900473ffffffffffffffffffffffffffffffffffffffff169050919050565b80806113d15750600073ffffffffffffffffffffffffffffffffffffffff168273ffffffffffffffffffffffffffffffffffffffff1614155b156115055760006113e184610aec565b9050600073ffffffffffffffffffffffffffffffffffffffff168373ffffffffffffffffffffffffffffffffffffffff161415801561144c57508273ffffffffffffffffffffffffffffffffffffffff168173ffffffffffffffffffffffffffffffffffffffff1614155b801561145f575061145d8184610968565b155b156114a157826040517fa9fbf51f0000000000000000000000000000000000000000000000000000000081526004016114989190611b6f565b60405180910390fd5b811561150357838573ffffffffffffffffffffffffffffffffffffffff168273ffffffffffffffffffffffffffffffffffffffff167f8c5be1e5ebec7d5bd14f71427d1e84f3dd0314c0f7b2291e5b200ac8c7c3b92560405160405180910390a45b505b836004600085815260200190815260200160002060006101000a81548173ffffffffffffffffffffffffffffffffffffffff021916908373ffffffffffffffffffffffffffffffffffffffff16021790555050505050565b611568838383611790565b61161c57600073ffffffffffffffffffffffffffffffffffffffff168373ffffffffffffffffffffffffffffffffffffffff16036115dd57806040517f7e2732890000000000000000000000000000000000000000000000000000000081526004016115d49190611c85565b60405180910390fd5b81816040517f177e802f000000000000000000000000000000000000000000000000000000008152600401611613929190612184565b60405180910390fd5b505050565b61162b8383611851565b61163860008484846110bf565b505050565b600080600090507a184f03e93ff9f4daa797ed6e38ed64bf6a1f010000000000000000831061169b577a184f03e93ff9f4daa797ed6e38ed64bf6a1f010000000000000000838161169157611690612155565b5b0492506040810190505b6d04ee2d6d415b85acef810000000083106116d8576d04ee2d6d415b85acef810000000083816116ce576116cd612155565b5b0492506020810190505b662386f26fc10000831061170757662386f26fc1000083816116fd576116fc612155565b5b0492506010810190505b6305f5e1008310611730576305f5e100838161172657611725612155565b5b0492506008810190505b612710831061175557612710838161174b5761174a612155565b5b0492506004810190505b60648310611778576064838161176e5761176d612155565b5b0492506002810190505b600a8310611787576001810190505b80915050919050565b60008073ffffffffffffffffffffffffffffffffffffffff168373ffffffffffffffffffffffffffffffffffffffff161415801561184857508273ffffffffffffffffffffffffffffffffffffffff168473ffffffffffffffffffffffffffffffffffffffff16148061180957506118088484610968565b5b8061184757508273ffffffffffffffffffffffffffffffffffffffff1661182f83610b74565b73ffffffffffffffffffffffffffffffffffffffff16145b5b90509392505050565b600073ffffffffffffffffffffffffffffffffffffffff168273ffffffffffffffffffffffffffffffffffffffff16036118c35760006040517f64a0ae920000000000000000000000000000000000000000000000000000000081526004016118ba9190611b6f565b60405180910390fd5b60006118d183836000610bcb565b9050600073ffffffffffffffffffffffffffffffffffffffff168173ffffffffffffffffffffffffffffffffffffffff16146119455760006040517f73c6ac6e00000000000000000000000000000000000000000000000000000000815260040161193c9190611b6f565b60405180910390fd5b505050565b6000604051905090565b600080fd5b600080fd5b60007fffffffff0000000000000000000000000000000000000000000000000000000082169050919050565b6119938161195e565b811461199e57600080fd5b50565b6000813590506119b08161198a565b92915050565b6000602082840312156119cc576119cb611954565b5b60006119da848285016119a1565b91505092915050565b60008115159050919050565b6119f8816119e3565b82525050565b6000602082019050611a1360008301846119ef565b92915050565b600081519050919050565b600082825260208201905092915050565b60005b83811015611a53578082015181840152602081019050611a38565b60008484015250505050565b6000601f19601f8301169050919050565b6000611a7b82611a19565b611a858185611a24565b9350611a95818560208601611a35565b611a9e81611a5f565b840191505092915050565b60006020820190508181036000830152611ac38184611a70565b905092915050565b6000819050919050565b611ade81611acb565b8114611ae957600080fd5b50565b600081359050611afb81611ad5565b92915050565b600060208284031215611b1757611b16611954565b5b6000611b2584828501611aec565b91505092915050565b600073ffffffffffffffffffffffffffffffffffffffff82169050919050565b6000611b5982611b2e565b9050919050565b611b6981611b4e565b82525050565b6000602082019050611b846000830184611b60565b92915050565b611b9381611b4e565b8114611b9e57600080fd5b50565b600081359050611bb081611b8a565b92915050565b60008060408385031215611bcd57611bcc611954565b5b6000611bdb85828601611ba1565b9250506020611bec85828601611aec565b9150509250929050565b600080600060608486031215611c0f57611c0e611954565b5b6000611c1d86828701611ba1565b9350506020611c2e86828701611ba1565b9250506040611c3f86828701611aec565b9150509250925092565b600060208284031215611c5f57611c5e611954565b5b6000611c6d84828501611ba1565b91505092915050565b611c7f81611acb565b82525050565b6000602082019050611c9a6000830184611c76565b92915050565b611ca9816119e3565b8114611cb457600080fd5b50565b600081359050611cc681611ca0565b92915050565b60008060408385031215611ce357611ce2611954565b5b6000611cf185828601611ba1565b9250506020611d0285828601611cb7565b9150509250929050565b600080fd5b600080fd5b7f4e487b7100000000000000000000000000000000000000000000000000000000600052604160045260246000fd5b611d4e82611a5f565b810181811067ffffffffffffffff82111715611d6d57611d6c611d16565b5b80604052505050565b6000611d8061194a565b9050611d8c8282611d45565b919050565b600067ffffffffffffffff821115611dac57611dab611d16565b5b611db582611a5f565b9050602081019050919050565b82818337600083830152505050565b6000611de4611ddf84611d91565b611d76565b905082815260208101848484011115611e0057611dff611d11565b5b611e0b848285611dc2565b509392505050565b600082601f830112611e2857611e27611d0c565b5b8135611e38848260208601611dd1565b91505092915050565b60008060008060808587031215611e5b57611e5a611954565b5b6000611e6987828801611ba1565b9450506020611e7a87828801611ba1565b9350506040611e8b87828801611aec565b925050606085013567ffffffffffffffff811115611eac57611eab611959565b5b611eb887828801611e13565b91505092959194509250565b60008060408385031215611edb57611eda611954565b5b6000611ee985828601611ba1565b9250506020611efa85828601611ba1565b9150509250929050565b7f4e487b7100000000000000000000000000000000000000000000000000000000600052602260045260246000fd5b60006002820490506001821680611f4b57607f821691505b602082108103611f5e57611f5d611f04565b5b50919050565b6000606082019050611f796000830186611b60565b611f866020830185611c76565b611f936040830184611b60565b949350505050565b7f4e487b7100000000000000000000000000000000000000000000000000000000600052601160045260246000fd5b6000611fd582611acb565b91507fffffffffffffffffffffffffffffffffffffffffffffffffffffffffffffffff820361200757612006611f9b565b5b600182019050919050565b600081905092915050565b600061202882611a19565b6120328185612012565b9350612042818560208601611a35565b80840191505092915050565b600061205a828561201d565b9150612066828461201d565b91508190509392505050565b600081519050919050565b600082825260208201905092915050565b600061209982612072565b6120a3818561207d565b93506120b3818560208601611a35565b6120bc81611a5f565b840191505092915050565b60006080820190506120dc6000830187611b60565b6120e96020830186611b60565b6120f66040830185611c76565b8181036060830152612108818461208e565b905095945050505050565b6000815190506121228161198a565b92915050565b60006020828403121561213e5761213d611954565b5b600061214c84828501612113565b91505092915050565b7f4e487b7100000000000000000000000000000000000000000000000000000000600052601260045260246000fd5b60006040820190506121996000830185611b60565b6121a66020830184611c76565b939250505056fea264697066735822122072c097d71e22ed090cf195efb14a8e12fa70134ed0fda5f27432d35681b839e264736f6c63430008140033",
  "linkReferences": {},
  "deployedLinkReferences": {}
}