{
  "_format": "hh-sol-artifact-1",
  "contractName": "UploadDocs",
  "sourceName": "contracts/UploadDocs.sol",
  "abi": [
    {
      "inputs": [],
      "stateMutability": "nonpayable",
      "type": "constructor"
    },
    {
      "inputs": [
        {
          "internalType": "uint256",
          "name": "_amount",
          "type": "uint256"
        },
        {
          "internalType": "string",
          "name": "_cnae",
          "type": "string"
        },
        {
          "internalType": "string",
          "name": "_docUrl",
          "type": "string"
        }
      ],
      "name": "addDocumentation",
      "outputs": [],
      "stateMutability": "nonpayable",
      "type": "function"
    },
    {
      "inputs": [],
      "name": "readAllDocumentations",
      "outputs": [
        {
          "components": [
            {
              "internalType": "uint256",
              "name": "amount",
              "type": "uint256"
            },
            {
              "internalType": "string",
              "name": "cnae",
              "type": "string"
            },
            {
              "internalType": "string",
              "name": "docUrl",
              "type": "string"
            }
          ],
          "internalType": "struct UploadDocs.Documentation[]",
          "name": "",
          "type": "tuple[]"
        }
      ],
      "stateMutability": "view",
      "type": "function"
    },
    {
      "inputs": [
        {
          "internalType": "uint256",
          "name": "_index",
          "type": "uint256"
        }
      ],
      "name": "readDocumentation",
      "outputs": [
        {
          "components": [
            {
              "internalType": "uint256",
              "name": "amount",
              "type": "uint256"
            },
            {
              "internalType": "string",
              "name": "cnae",
              "type": "string"
            },
            {
              "internalType": "string",
              "name": "docUrl",
              "type": "string"
            }
          ],
          "internalType": "struct UploadDocs.Documentation",
          "name": "",
          "type": "tuple"
        }
      ],
      "stateMutability": "view",
      "type": "function"
    }
  ],
  "bytecode": "0x608060405234801561001057600080fd5b50610c18806100206000396000f3fe608060405234801561001057600080fd5b50600436106100415760003560e01c8063255816bd146100465780634828dbc614610062578063f0e808c614610080575b600080fd5b610060600480360381019061005b91906105db565b6100b0565b005b61006a610133565b604051610077919061080d565b60405180910390f35b61009a6004803603810190610095919061082f565b6102c0565b6040516100a791906108b3565b60405180910390f35b600060405180606001604052808581526020018481526020018381525090806001815401808255809150506001900390600052602060002090600302016000909190919091506000820151816000015560208201518160010190816101159190610ae1565b50604082015181600201908161012b9190610ae1565b505050505050565b60606000805480602002602001604051908101604052809291908181526020016000905b828210156102b757838290600052602060002090600302016040518060600160405290816000820154815260200160018201805461019490610904565b80601f01602080910402602001604051908101604052809291908181526020018280546101c090610904565b801561020d5780601f106101e25761010080835404028352916020019161020d565b820191906000526020600020905b8154815290600101906020018083116101f057829003601f168201915b5050505050815260200160028201805461022690610904565b80601f016020809104026020016040519081016040528092919081815260200182805461025290610904565b801561029f5780601f106102745761010080835404028352916020019161029f565b820191906000526020600020905b81548152906001019060200180831161028257829003601f168201915b50505050508152505081526020019060010190610157565b50505050905090565b6102c861042a565b600082815481106102dc576102db610bb3565b5b90600052602060002090600302016040518060600160405290816000820154815260200160018201805461030f90610904565b80601f016020809104026020016040519081016040528092919081815260200182805461033b90610904565b80156103885780601f1061035d57610100808354040283529160200191610388565b820191906000526020600020905b81548152906001019060200180831161036b57829003601f168201915b505050505081526020016002820180546103a190610904565b80601f01602080910402602001604051908101604052809291908181526020018280546103cd90610904565b801561041a5780601f106103ef5761010080835404028352916020019161041a565b820191906000526020600020905b8154815290600101906020018083116103fd57829003601f168201915b5050505050815250509050919050565b60405180606001604052806000815260200160608152602001606081525090565b6000604051905090565b600080fd5b600080fd5b6000819050919050565b6104728161045f565b811461047d57600080fd5b50565b60008135905061048f81610469565b92915050565b600080fd5b600080fd5b6000601f19601f8301169050919050565b7f4e487b7100000000000000000000000000000000000000000000000000000000600052604160045260246000fd5b6104e88261049f565b810181811067ffffffffffffffff82111715610507576105066104b0565b5b80604052505050565b600061051a61044b565b905061052682826104df565b919050565b600067ffffffffffffffff821115610546576105456104b0565b5b61054f8261049f565b9050602081019050919050565b82818337600083830152505050565b600061057e6105798461052b565b610510565b90508281526020810184848401111561059a5761059961049a565b5b6105a584828561055c565b509392505050565b600082601f8301126105c2576105c1610495565b5b81356105d284826020860161056b565b91505092915050565b6000806000606084860312156105f4576105f3610455565b5b600061060286828701610480565b935050602084013567ffffffffffffffff8111156106235761062261045a565b5b61062f868287016105ad565b925050604084013567ffffffffffffffff8111156106505761064f61045a565b5b61065c868287016105ad565b9150509250925092565b600081519050919050565b600082825260208201905092915050565b6000819050602082019050919050565b61069b8161045f565b82525050565b600081519050919050565b600082825260208201905092915050565b60005b838110156106db5780820151818401526020810190506106c0565b60008484015250505050565b60006106f2826106a1565b6106fc81856106ac565b935061070c8185602086016106bd565b6107158161049f565b840191505092915050565b60006060830160008301516107386000860182610692565b506020830151848203602086015261075082826106e7565b9150506040830151848203604086015261076a82826106e7565b9150508091505092915050565b60006107838383610720565b905092915050565b6000602082019050919050565b60006107a382610666565b6107ad8185610671565b9350836020820285016107bf85610682565b8060005b858110156107fb57848403895281516107dc8582610777565b94506107e78361078b565b925060208a019950506001810190506107c3565b50829750879550505050505092915050565b600060208201905081810360008301526108278184610798565b905092915050565b60006020828403121561084557610844610455565b5b600061085384828501610480565b91505092915050565b60006060830160008301516108746000860182610692565b506020830151848203602086015261088c82826106e7565b915050604083015184820360408601526108a682826106e7565b9150508091505092915050565b600060208201905081810360008301526108cd818461085c565b905092915050565b7f4e487b7100000000000000000000000000000000000000000000000000000000600052602260045260246000fd5b6000600282049050600182168061091c57607f821691505b60208210810361092f5761092e6108d5565b5b50919050565b60008190508160005260206000209050919050565b60006020601f8301049050919050565b600082821b905092915050565b6000600883026109977fffffffffffffffffffffffffffffffffffffffffffffffffffffffffffffffff8261095a565b6109a1868361095a565b95508019841693508086168417925050509392505050565b6000819050919050565b60006109de6109d96109d48461045f565b6109b9565b61045f565b9050919050565b6000819050919050565b6109f8836109c3565b610a0c610a04826109e5565b848454610967565b825550505050565b600090565b610a21610a14565b610a2c8184846109ef565b505050565b5b81811015610a5057610a45600082610a19565b600181019050610a32565b5050565b601f821115610a9557610a6681610935565b610a6f8461094a565b81016020851015610a7e578190505b610a92610a8a8561094a565b830182610a31565b50505b505050565b600082821c905092915050565b6000610ab860001984600802610a9a565b1980831691505092915050565b6000610ad18383610aa7565b9150826002028217905092915050565b610aea826106a1565b67ffffffffffffffff811115610b0357610b026104b0565b5b610b0d8254610904565b610b18828285610a54565b600060209050601f831160018114610b4b5760008415610b39578287015190505b610b438582610ac5565b865550610bab565b601f198416610b5986610935565b60005b82811015610b8157848901518255600182019150602085019450602081019050610b5c565b86831015610b9e5784890151610b9a601f891682610aa7565b8355505b6001600288020188555050505b505050505050565b7f4e487b7100000000000000000000000000000000000000000000000000000000600052603260045260246000fdfea26469706673582212204a35d2ed1c6f763ac25a0ff56edfb2233d54467722ca2e751dcb50388271b10364736f6c63430008140033",
  "linkReferences": {},
  "deployedLinkReferences": {}
}